{
    "contractName": "EIP1167_Question",
    "abi": [
        {
            "anonymous": false,
            "inputs": [
                {
                    "indexed": true,
                    "internalType": "address",
                    "name": "_market",
                    "type": "address"
                },
                {
                    "indexed": true,
                    "internalType": "address",
                    "name": "_user",
                    "type": "address"
                },
                {
                    "indexed": false,
                    "internalType": "uint256",
                    "name": "_amount",
                    "type": "uint256"
                }
            ],
            "name": "payoutReceived",
            "type": "event"
        },
        {
            "anonymous": false,
            "inputs": [
                {
                    "indexed": true,
                    "internalType": "address",
                    "name": "_market",
                    "type": "address"
                },
                {
                    "indexed": false,
                    "internalType": "enum EIP1167_Question.State",
                    "name": "_state",
                    "type": "uint8"
                }
            ],
            "name": "phaseChange",
            "type": "event"
        },
        {
            "anonymous": false,
            "inputs": [
                {
                    "indexed": true,
                    "internalType": "address",
                    "name": "_market",
                    "type": "address"
                },
                {
                    "indexed": true,
                    "internalType": "address",
                    "name": "_user",
                    "type": "address"
                },
                {
                    "indexed": false,
                    "internalType": "uint256",
                    "name": "_fromOptionId",
                    "type": "uint256"
                },
                {
                    "indexed": false,
                    "internalType": "uint256",
                    "name": "_toOptionId",
                    "type": "uint256"
                },
                {
                    "indexed": false,
                    "internalType": "uint256",
                    "name": "_amount",
                    "type": "uint256"
                }
            ],
            "name": "stakeChanged",
            "type": "event"
        },
        {
            "anonymous": false,
            "inputs": [
                {
                    "indexed": true,
                    "internalType": "address",
                    "name": "_market",
                    "type": "address"
                },
                {
                    "indexed": true,
                    "internalType": "address",
                    "name": "_user",
                    "type": "address"
                },
                {
                    "indexed": false,
                    "internalType": "uint256",
                    "name": "_optionId",
                    "type": "uint256"
                },
                {
                    "indexed": false,
                    "internalType": "uint256",
                    "name": "_amount",
                    "type": "uint256"
                }
            ],
            "name": "staked",
            "type": "event"
        },
        {
            "inputs": [],
            "name": "MARKET_MAKER_FEE_PER",
            "outputs": [
                {
                    "internalType": "uint256",
                    "name": "",
                    "type": "uint256"
                }
            ],
            "stateMutability": "view",
            "type": "function"
        },
        {
            "inputs": [
                {
                    "internalType": "uint256",
                    "name": "_currTime",
                    "type": "uint256"
                },
                {
                    "internalType": "uint256",
                    "name": "_startTime",
                    "type": "uint256"
                },
                {
                    "internalType": "uint256",
                    "name": "_endTime",
                    "type": "uint256"
                }
            ],
            "name": "TcalcValidationFeePer",
            "outputs": [
                {
                    "internalType": "uint256",
                    "name": "",
                    "type": "uint256"
                }
            ],
            "stateMutability": "pure",
            "type": "function"
        },
        {
            "inputs": [],
            "name": "bettingEndTime",
            "outputs": [
                {
                    "internalType": "uint256",
                    "name": "",
                    "type": "uint256"
                }
            ],
            "stateMutability": "view",
            "type": "function"
        },
        {
            "inputs": [
                {
                    "internalType": "uint256",
                    "name": "",
                    "type": "uint256"
                }
            ],
            "name": "bettingOptionBalances",
            "outputs": [
                {
                    "internalType": "uint256",
                    "name": "",
                    "type": "uint256"
                }
            ],
            "stateMutability": "view",
            "type": "function"
        },
        {
            "inputs": [],
            "name": "bettingRightOptionBalance",
            "outputs": [
                {
                    "internalType": "uint256",
                    "name": "",
                    "type": "uint256"
                }
            ],
            "stateMutability": "view",
            "type": "function"
        },
        {
            "inputs": [],
            "name": "bettingWrongOptionsBalance",
            "outputs": [
                {
                    "internalType": "uint256",
                    "name": "",
                    "type": "uint256"
                }
            ],
            "stateMutability": "view",
            "type": "function"
        },
        {
            "inputs": [
                {
                    "internalType": "uint256",
                    "name": "_fromOptionId",
                    "type": "uint256"
                },
                {
                    "internalType": "uint256",
                    "name": "_toOptionId",
                    "type": "uint256"
                },
                {
                    "internalType": "uint256",
                    "name": "_amount",
                    "type": "uint256"
                }
            ],
            "name": "changeStake",
            "outputs": [],
            "stateMutability": "nonpayable",
            "type": "function"
        },
        {
            "inputs": [],
            "name": "currState",
            "outputs": [
                {
                    "internalType": "enum EIP1167_Question.State",
                    "name": "",
                    "type": "uint8"
                }
            ],
            "stateMutability": "view",
            "type": "function"
        },
        {
            "inputs": [],
            "name": "description",
            "outputs": [
                {
                    "internalType": "string",
                    "name": "",
                    "type": "string"
                }
            ],
            "stateMutability": "view",
            "type": "function"
        },
        {
            "inputs": [],
            "name": "eventEndTime",
            "outputs": [
                {
                    "internalType": "uint256",
                    "name": "",
                    "type": "uint256"
                }
            ],
            "stateMutability": "view",
            "type": "function"
        },
        {
            "inputs": [],
            "name": "getMarketBalance",
            "outputs": [
                {
                    "internalType": "uint256",
                    "name": "",
                    "type": "uint256"
                }
            ],
            "stateMutability": "view",
            "type": "function"
        },
        {
            "inputs": [
                {
                    "internalType": "address",
                    "name": "",
                    "type": "address"
                }
            ],
            "name": "hasReported",
            "outputs": [
                {
                    "internalType": "bool",
                    "name": "",
                    "type": "bool"
                }
            ],
            "stateMutability": "view",
            "type": "function"
        },
        {
            "inputs": [
                {
                    "internalType": "address",
                    "name": "",
                    "type": "address"
                }
            ],
            "name": "hasStaked",
            "outputs": [
                {
                    "internalType": "bool",
                    "name": "",
                    "type": "bool"
                }
            ],
            "stateMutability": "view",
            "type": "function"
        },
        {
            "inputs": [
                {
                    "internalType": "address",
                    "name": "_owner",
                    "type": "address"
                },
                {
                    "internalType": "string",
                    "name": "_description",
                    "type": "string"
                },
                {
                    "internalType": "string[]",
                    "name": "_options",
                    "type": "string[]"
                },
                {
                    "internalType": "uint256",
                    "name": "_bettingEndTime",
                    "type": "uint256"
                },
                {
                    "internalType": "uint256",
                    "name": "_eventEndTime",
                    "type": "uint256"
                }
            ],
            "name": "init",
            "outputs": [],
            "stateMutability": "nonpayable",
            "type": "function"
        },
        {
            "inputs": [],
            "name": "marketInitialized",
            "outputs": [
                {
                    "internalType": "bool",
                    "name": "",
                    "type": "bool"
                }
            ],
            "stateMutability": "view",
            "type": "function"
        },
        {
            "inputs": [],
            "name": "marketMakerPool",
            "outputs": [
                {
                    "internalType": "uint256",
                    "name": "",
                    "type": "uint256"
                }
            ],
            "stateMutability": "view",
            "type": "function"
        },
        {
            "inputs": [],
            "name": "marketPool",
            "outputs": [
                {
                    "internalType": "uint256",
                    "name": "",
                    "type": "uint256"
                }
            ],
            "stateMutability": "view",
            "type": "function"
        },
        {
            "inputs": [
                {
                    "internalType": "uint256",
                    "name": "",
                    "type": "uint256"
                }
            ],
            "name": "options",
            "outputs": [
                {
                    "internalType": "string",
                    "name": "",
                    "type": "string"
                }
            ],
            "stateMutability": "view",
            "type": "function"
        },
        {
            "inputs": [],
            "name": "owner",
            "outputs": [
                {
                    "internalType": "address payable",
                    "name": "",
                    "type": "address"
                }
            ],
            "stateMutability": "view",
            "type": "function"
        },
        {
            "inputs": [],
            "name": "publicVariables",
            "outputs": [
                {
                    "internalType": "string",
                    "name": "",
                    "type": "string"
                },
                {
                    "internalType": "uint256[14]",
                    "name": "",
                    "type": "uint256[14]"
                },
                {
                    "internalType": "uint256[][2]",
                    "name": "",
                    "type": "uint256[][2]"
                },
                {
                    "internalType": "string[]",
                    "name": "",
                    "type": "string[]"
                }
            ],
            "stateMutability": "view",
            "type": "function"
        },
        {
            "inputs": [],
            "name": "redeemMarketMakerPayout",
            "outputs": [],
            "stateMutability": "nonpayable",
            "type": "function"
        },
        {
            "inputs": [],
            "name": "redeemReportingPayout",
            "outputs": [],
            "stateMutability": "nonpayable",
            "type": "function"
        },
        {
            "inputs": [],
            "name": "redeemStakedPayout",
            "outputs": [],
            "stateMutability": "payable",
            "type": "function"
        },
        {
            "inputs": [
                {
                    "internalType": "uint256",
                    "name": "",
                    "type": "uint256"
                }
            ],
            "name": "reportingOptionBalances",
            "outputs": [
                {
                    "internalType": "uint256",
                    "name": "",
                    "type": "uint256"
                }
            ],
            "stateMutability": "view",
            "type": "function"
        },
        {
            "inputs": [],
            "name": "reportingRightOptionBalance",
            "outputs": [
                {
                    "internalType": "uint256",
                    "name": "",
                    "type": "uint256"
                }
            ],
            "stateMutability": "view",
            "type": "function"
        },
        {
            "inputs": [],
            "name": "reportingStartTime",
            "outputs": [
                {
                    "internalType": "uint256",
                    "name": "",
                    "type": "uint256"
                }
            ],
            "stateMutability": "view",
            "type": "function"
        },
        {
            "inputs": [],
            "name": "reportingWrongOptionsBalance",
            "outputs": [
                {
                    "internalType": "uint256",
                    "name": "",
                    "type": "uint256"
                }
            ],
            "stateMutability": "view",
            "type": "function"
        },
        {
            "inputs": [
                {
                    "internalType": "uint256",
                    "name": "_optionId",
                    "type": "uint256"
                }
            ],
            "name": "stake",
            "outputs": [],
            "stateMutability": "payable",
            "type": "function"
        },
        {
            "inputs": [],
            "name": "stakeChangePool",
            "outputs": [
                {
                    "internalType": "uint256",
                    "name": "",
                    "type": "uint256"
                }
            ],
            "stateMutability": "view",
            "type": "function"
        },
        {
            "inputs": [
                {
                    "internalType": "address",
                    "name": "",
                    "type": "address"
                },
                {
                    "internalType": "uint256",
                    "name": "",
                    "type": "uint256"
                }
            ],
            "name": "stakeDetails",
            "outputs": [
                {
                    "internalType": "uint256",
                    "name": "",
                    "type": "uint256"
                }
            ],
            "stateMutability": "view",
            "type": "function"
        },
        {
            "inputs": [
                {
                    "internalType": "uint256",
                    "name": "_optionId",
                    "type": "uint256"
                }
            ],
            "name": "stakeForReporting",
            "outputs": [],
            "stateMutability": "payable",
            "type": "function"
        },
        {
            "inputs": [],
            "name": "startTime",
            "outputs": [
                {
                    "internalType": "uint256",
                    "name": "",
                    "type": "uint256"
                }
            ],
            "stateMutability": "view",
            "type": "function"
        },
        {
            "inputs": [],
            "name": "validationFeePool",
            "outputs": [
                {
                    "internalType": "uint256",
                    "name": "",
                    "type": "uint256"
                }
            ],
            "stateMutability": "view",
            "type": "function"
        },
        {
            "inputs": [],
            "name": "validationPool",
            "outputs": [
                {
                    "internalType": "uint256",
                    "name": "",
                    "type": "uint256"
                }
            ],
            "stateMutability": "view",
            "type": "function"
        },
        {
            "inputs": [],
            "name": "winningOptionId",
            "outputs": [
                {
                    "internalType": "uint256",
                    "name": "",
                    "type": "uint256"
                }
            ],
            "stateMutability": "view",
            "type": "function"
        }
    ],
    "bytecode": "608060405234801561001057600080fd5b506131e7806100206000396000f3fe6080604052600436106102045760003560e01c80639c2da5d011610118578063c93c8f34116100a0578063f021d5f41161006f578063f021d5f414610514578063f133f08814610534578063f7b884d914610549578063f882366e14610551578063fd35f8fe1461057657610204565b8063c93c8f34146104b5578063cbefdfea146104d5578063cc91c561146104ea578063d6bd5db1146104ff57610204565b8063afe01043116100e7578063afe0104314610429578063b555181e1461044b578063b5a21e9c14610460578063b8fe7cd414610480578063c37cb8d41461049557610204565b80639c2da5d0146103cc578063a478ac95146103e1578063a694fc3a14610401578063ae4950911461041457610204565b80637284e4161161019b5780638da5cb5b1161016a5780638da5cb5b1461034957806393818cae1461036b57806395f85c5d14610380578063964eec70146103a25780639b7242e0146103b757610204565b80637284e416146102ea57806378e97925146102ff57806378eaffa2146103145780638cd4d49a1461033457610204565b8063409e2205116101d7578063409e22051461027e57806344ee0b8f146102ab5780634513443a146102c057806367075032146102d557610204565b80631467c575146102095780632330a73a1461022b578063237d20b6146102565780633cd620c014610269575b600080fd5b34801561021557600080fd5b506102296102243660046129b7565b610596565b005b34801561023757600080fd5b506102406106aa565b60405161024d919061311f565b60405180910390f35b610229610264366004612a94565b6106b0565b34801561027557600080fd5b50610240610a6b565b34801561028a57600080fd5b5061029e610299366004612a94565b610a71565b60405161024d9190612bad565b3480156102b757600080fd5b50610229610b1a565b3480156102cc57600080fd5b50610240610e89565b3480156102e157600080fd5b50610240610e8f565b3480156102f657600080fd5b5061029e610e95565b34801561030b57600080fd5b50610240610eef565b34801561032057600080fd5b5061022961032f366004612aac565b610ef5565b34801561034057600080fd5b506102406113d6565b34801561035557600080fd5b5061035e6113db565b60405161024d9190612b7a565b34801561037757600080fd5b506102406113ef565b34801561038c57600080fd5b506103956113f5565b60405161024d9190612b8e565b3480156103ae57600080fd5b506102406113fe565b3480156103c357600080fd5b50610240611402565b3480156103d857600080fd5b50610240611408565b3480156103ed57600080fd5b506102406103fc366004612aac565b61140e565b61022961040f366004612a94565b611423565b34801561042057600080fd5b5061024061186e565b34801561043557600080fd5b5061043e611874565b60405161024d9190612b99565b34801561045757600080fd5b5061024061187d565b34801561046c57600080fd5b5061024061047b366004612a94565b611883565b34801561048c57600080fd5b506102406118a4565b3480156104a157600080fd5b506103956104b036600461299d565b6118aa565b3480156104c157600080fd5b506103956104d036600461299d565b6118bf565b3480156104e157600080fd5b506102406118d4565b3480156104f657600080fd5b506102406118da565b34801561050b57600080fd5b506102406118e0565b34801561052057600080fd5b5061024061052f366004612a94565b6118e6565b34801561054057600080fd5b506102296118f6565b610229611cee565b34801561055d57600080fd5b5061056661201f565b60405161024d9493929190612bc0565b34801561058257600080fd5b50610240610591366004612a6b565b6122d1565b60135460ff16156105c25760405162461bcd60e51b81526004016105b9906130ca565b60405180910390fd5b60138054600160ff19909116811790915560008054610100600160a81b0319166101006001600160a01b038a16021790556105fe9086866126a4565b508251610612906002906020860190612730565b5042600555600682905560078190556000805460ff191681555b83518160ff16116106a15760038054600181810190925560007fc2575a0e9e593c00f959f8c92f12db2869c3395a3b0502d05e2516446f71f85b9091018190556004805480840182559082527f8a35acfbc15ff81a39ae7d344fd709f28e8600b4aa8c65c6b64bfe7fe36bd19b01550161062c565b50505050505050565b600c5481565b6000805460ff1660038111156106c257fe5b1480156106d157506006544210155b15610710576000805460ff1916600117908190556040513091600080516020613171833981519152916107079160ff1690612b99565b60405180910390a25b600160005460ff16600381111561072357fe5b14801561073257506007544210155b15610775576000805460ff1916600217908190554260085560405130916000805160206131718339815191529161076c9160ff1690612b99565b60405180910390a25b600260005460ff16600381111561078857fe5b1480156107b05750600e5461079e9060026122ee565b601054600f546107ad91612357565b10155b1561091d576000805460ff19166003179055600480546040805160208084028201810190925282815261081a939092909183018282801561081057602002820191906000526020600020905b8154815260200190600101908083116107fc575b50505050506123b4565b6012556003805460408051602080840282018101909252828152610881939092909183018282801561086b57602002820191906000526020600020905b815481526020019060010190808311610857575b505050505060125461243990919063ffffffff16565b600a5560095560048054604080516020808402820181019092528281526108e9939092909183018282801561086b576020028201919060005260206000209081548152602001906001019080831161085757505050505060125461243990919063ffffffff16565b600c55600b556000546040513091600080516020613171833981519152916109149160ff1690612b99565b60405180910390a25b60028060005460ff16600381111561093157fe5b1461094e5760405162461bcd60e51b81526004016105b990612d7f565b3360009081526015602052604090205460ff1615801561097e57503360009081526016602052604090205460ff16155b61099a5760405162461bcd60e51b81526004016105b990612ddc565b336000908152601560205260409020805460ff19166001179055600f546109c190346124cb565b600f819055506109f134600484815481106109d857fe5b90600052602060002001546124cb90919063ffffffff16565b600483815481106109fe57fe5b6000918252602080832090910192909255338082526014835260408083208684529093529082902034908190559151909130917fed330087da8c06b703dc3bc790418004c53057afadb00111299af1ec0183602691610a5f91879190613128565b60405180910390a35050565b60085481565b60028181548110610a8157600080fd5b600091825260209182902001805460408051601f6002600019610100600187161502019094169390930492830185900485028101850190915281815293509091830182828015610b125780601f10610ae757610100808354040283529160200191610b12565b820191906000526020600020905b815481529060010190602001808311610af557829003601f168201915b505050505081565b6000805460ff166003811115610b2c57fe5b148015610b3b57506006544210155b15610b7a576000805460ff191660011790819055604051309160008051602061317183398151915291610b719160ff1690612b99565b60405180910390a25b600160005460ff166003811115610b8d57fe5b148015610b9c57506007544210155b15610bdf576000805460ff19166002179081905542600855604051309160008051602061317183398151915291610bd69160ff1690612b99565b60405180910390a25b600260005460ff166003811115610bf257fe5b148015610c1a5750600e54610c089060026122ee565b601054600f54610c1791612357565b10155b15610d83576000805460ff191660031790556004805460408051602080840282018101909252828152610c82939092909183018282801561081057602002820191906000526020600020908154815260200190600101908083116107fc5750505050506123b4565b6012556003805460408051602080840282018101909252828152610ce7939092909183018282801561086b576020028201919060005260206000209081548152602001906001019080831161085757505050505060125461243990919063ffffffff16565b600a556009556004805460408051602080840282018101909252828152610d4f939092909183018282801561086b576020028201919060005260206000209081548152602001906001019080831161085757505050505060125461243990919063ffffffff16565b600c55600b55600054604051309160008051602061317183398151915291610d7a9160ff1690612b99565b60405180910390a25b60038060005460ff166003811115610d9757fe5b14610db45760405162461bcd60e51b81526004016105b990612d7f565b60005461010090046001600160a01b03163314610de35760405162461bcd60e51b81526004016105b990612cd8565b600d54610e025760405162461bcd60e51b81526004016105b990612eaf565b600d8054600091829055815460405191926101009091046001600160a01b0316916108fc84150291849190818181858888f19350505050610e555760405162461bcd60e51b81526004016105b990612efa565b604051339030907fd6bea2cabd5edc0156bc61c650fba16ed0be2ea15d87c1801558ad36957437eb90610a5f90859061311f565b600d5481565b60065481565b60018054604080516020600284861615610100026000190190941693909304601f81018490048402820184019092528181529291830182828015610b125780601f10610ae757610100808354040283529160200191610b12565b60055481565b6000805460ff166003811115610f0757fe5b148015610f1657506006544210155b15610f55576000805460ff191660011790819055604051309160008051602061317183398151915291610f4c9160ff1690612b99565b60405180910390a25b600160005460ff166003811115610f6857fe5b148015610f7757506007544210155b15610fba576000805460ff19166002179081905542600855604051309160008051602061317183398151915291610fb19160ff1690612b99565b60405180910390a25b600260005460ff166003811115610fcd57fe5b148015610ff55750600e54610fe39060026122ee565b601054600f54610ff291612357565b10155b1561115e576000805460ff19166003179055600480546040805160208084028201810190925282815261105d939092909183018282801561081057602002820191906000526020600020908154815260200190600101908083116107fc5750505050506123b4565b60125560038054604080516020808402820181019092528281526110c2939092909183018282801561086b576020028201919060005260206000209081548152602001906001019080831161085757505050505060125461243990919063ffffffff16565b600a55600955600480546040805160208084028201810190925282815261112a939092909183018282801561086b576020028201919060005260206000209081548152602001906001019080831161085757505050505060125461243990919063ffffffff16565b600c55600b556000546040513091600080516020613171833981519152916111559160ff1690612b99565b60405180910390a25b60008060005460ff16600381111561117257fe5b1461118f5760405162461bcd60e51b81526004016105b990612d7f565b836002548111156111b25760405162461bcd60e51b81526004016105b990612d19565b836002548111156111d55760405162461bcd60e51b81526004016105b990612d19565b3360009081526015602052604090205460ff166112045760405162461bcd60e51b81526004016105b990612fa5565b33600090815260146020908152604080832089845290915290205484111561123e5760405162461bcd60e51b81526004016105b990612c82565b8486141561125e5760405162461bcd60e51b81526004016105b990612e21565b6064841161127e5760405162461bcd60e51b81526004016105b990613011565b336000908152601460209081526040808320898452909152808220548783529120546112b76112ae8760646122ee565b601154906124cb565b6011556112c48287612357565b3360009081526014602090815260408083208c84529091529020556112f46112ed8760646122ee565b8790612357565b95506113208660038a8154811061130757fe5b906000526020600020015461235790919063ffffffff16565b6003898154811061132d57fe5b906000526020600020018190555061134c86600389815481106109d857fe5b6003888154811061135957fe5b60009182526020909120015561136f81876124cb565b3360008181526014602090815260408083208c84529091529081902092909255905130907fc5e8043d0659ac86af5f0c53f30f8c6f4568a0006ac2312f375041da4dfe4a17906113c4908c908c908c90613136565b60405180910390a35050505050505050565b606481565b60005461010090046001600160a01b031681565b60115481565b60135460ff1681565b4790565b600f5481565b600b5481565b600061141b84848461252c565b949350505050565b6000805460ff16600381111561143557fe5b14801561144457506006544210155b15611483576000805460ff19166001179081905560405130916000805160206131718339815191529161147a9160ff1690612b99565b60405180910390a25b600160005460ff16600381111561149657fe5b1480156114a557506007544210155b156114e8576000805460ff191660021790819055426008556040513091600080516020613171833981519152916114df9160ff1690612b99565b60405180910390a25b600260005460ff1660038111156114fb57fe5b1480156115235750600e546115119060026122ee565b601054600f5461152091612357565b10155b1561168c576000805460ff19166003179055600480546040805160208084028201810190925282815261158b939092909183018282801561081057602002820191906000526020600020908154815260200190600101908083116107fc5750505050506123b4565b60125560038054604080516020808402820181019092528281526115f0939092909183018282801561086b576020028201919060005260206000209081548152602001906001019080831161085757505050505060125461243990919063ffffffff16565b600a556009556004805460408051602080840282018101909252828152611658939092909183018282801561086b576020028201919060005260206000209081548152602001906001019080831161085757505050505060125461243990919063ffffffff16565b600c55600b556000546040513091600080516020613171833981519152916116839160ff1690612b99565b60405180910390a25b60008060005460ff1660038111156116a057fe5b146116bd5760405162461bcd60e51b81526004016105b990612d7f565b816002548111156116e05760405162461bcd60e51b81526004016105b990612d19565b61271034116117015760405162461bcd60e51b81526004016105b990613093565b336000908152601560205260408120805460ff191660011790556005546006543492916117309142919061252c565b9050600061173f6064846125ae565b9050600061174f606484866125de565b9050600061176761176084846124cb565b8690612357565b3360009081526014602090815260408083208c8452909152902054600d549192509061179390856124cb565b600d556010546117a390846124cb565b601055600f546117b390846124cb565b600f55600e546117c390836124cb565b600e55838301820186146117d357fe5b6117dd81836124cb565b3360009081526014602090815260408083208d84529091529020556003805461180c9184918c9081106109d857fe5b60038a8154811061181957fe5b600091825260209091200155604051339030907fed330087da8c06b703dc3bc790418004c53057afadb00111299af1ec018360269061185b908d903490613128565b60405180910390a3505050505050505050565b600e5481565b60005460ff1681565b600a5481565b6003818154811061189357600080fd5b600091825260209091200154905081565b60125481565b60166020526000908152604090205460ff1681565b60156020526000908152604090205460ff1681565b60095481565b60105481565b60075481565b6004818154811061189357600080fd5b6000805460ff16600381111561190857fe5b14801561191757506006544210155b15611956576000805460ff19166001179081905560405130916000805160206131718339815191529161194d9160ff1690612b99565b60405180910390a25b600160005460ff16600381111561196957fe5b14801561197857506007544210155b156119bb576000805460ff191660021790819055426008556040513091600080516020613171833981519152916119b29160ff1690612b99565b60405180910390a25b600260005460ff1660038111156119ce57fe5b1480156119f65750600e546119e49060026122ee565b601054600f546119f391612357565b10155b15611b5f576000805460ff191660031790556004805460408051602080840282018101909252828152611a5e939092909183018282801561081057602002820191906000526020600020908154815260200190600101908083116107fc5750505050506123b4565b6012556003805460408051602080840282018101909252828152611ac3939092909183018282801561086b576020028201919060005260206000209081548152602001906001019080831161085757505050505060125461243990919063ffffffff16565b600a556009556004805460408051602080840282018101909252828152611b2b939092909183018282801561086b576020028201919060005260206000209081548152602001906001019080831161085757505050505060125461243990919063ffffffff16565b600c55600b55600054604051309160008051602061317183398151915291611b569160ff1690612b99565b60405180910390a25b60038060005460ff166003811115611b7357fe5b14611b905760405162461bcd60e51b81526004016105b990612d7f565b3360009081526015602052604090205460ff16611bbf5760405162461bcd60e51b81526004016105b990613046565b3360009081526014602090815260408083206012548452909152902054611bf85760405162461bcd60e51b81526004016105b990612fdc565b6000600f5411611c0457fe5b336000908152601560205260408120805460ff19169055600b54600f54611c549190611c309082612357565b3360009081526014602090815260408083206012548452909152902054919061262b565b3360008181526014602090815260408083206012548452909152808220829055519293509091829184156108fc02918591818181858888f19350505050611cad5760405162461bcd60e51b81526004016105b990612efa565b604051339030907fd6bea2cabd5edc0156bc61c650fba16ed0be2ea15d87c1801558ad36957437eb90611ce190869061311f565b60405180910390a3505050565b6000805460ff166003811115611d0057fe5b148015611d0f57506006544210155b15611d4e576000805460ff191660011790819055604051309160008051602061317183398151915291611d459160ff1690612b99565b60405180910390a25b600160005460ff166003811115611d6157fe5b148015611d7057506007544210155b15611db3576000805460ff19166002179081905542600855604051309160008051602061317183398151915291611daa9160ff1690612b99565b60405180910390a25b600260005460ff166003811115611dc657fe5b148015611dee5750600e54611ddc9060026122ee565b601054600f54611deb91612357565b10155b15611f57576000805460ff191660031790556004805460408051602080840282018101909252828152611e56939092909183018282801561081057602002820191906000526020600020908154815260200190600101908083116107fc5750505050506123b4565b6012556003805460408051602080840282018101909252828152611ebb939092909183018282801561086b576020028201919060005260206000209081548152602001906001019080831161085757505050505060125461243990919063ffffffff16565b600a556009556004805460408051602080840282018101909252828152611f23939092909183018282801561086b576020028201919060005260206000209081548152602001906001019080831161085757505050505060125461243990919063ffffffff16565b600c55600b55600054604051309160008051602061317183398151915291611f4e9160ff1690612b99565b60405180910390a25b60038060005460ff166003811115611f6b57fe5b14611f885760405162461bcd60e51b81526004016105b990612d7f565b3360009081526015602052604090205460ff16611fb75760405162461bcd60e51b81526004016105b990612f54565b3360009081526014602090815260408083206012548452909152902054611ff05760405162461bcd60e51b81526004016105b990612e51565b336000908152601560205260408120805460ff19169055600954601154600a54611c549291611c3091906124cb565b6060612029612789565b6120316127a8565b60606001604051806101c0016040528060055481526020016006548152602001600754815260200160085481526020016009548152602001600a548152602001600b548152602001600c548152602001600d548152602001600e548152602001600f548152602001601054815260200160115481526020016012548152506040518060400160405280600380548060200260200160405190810160405280929190818152602001828054801561210657602002820191906000526020600020905b8154815260200190600101908083116120f2575b50505050508152602001600480548060200260200160405190810160405280929190818152602001828054801561215c57602002820191906000526020600020905b815481526020019060010190808311612148575b5050509190925250508254604080516020600260018516156101000260001901909416849004601f8101829004820283018201909352828252909186918301828280156121ea5780601f106121bf576101008083540402835291602001916121ea565b820191906000526020600020905b8154815290600101906020018083116121cd57829003601f168201915b5050505050935080805480602002602001604051908101604052809291908181526020016000905b828210156122bd5760008481526020908190208301805460408051601f60026000196101006001871615020190941693909304928301859004850281018501909152818152928301828280156122a95780601f1061227e576101008083540402835291602001916122a9565b820191906000526020600020905b81548152906001019060200180831161228c57829003601f168201915b505050505081526020019060010190612212565b505050509050935093509350935090919293565b601460209081526000928352604080842090915290825290205481565b6000808211612344576040805162461bcd60e51b815260206004820152601a60248201527f536166654d6174683a206469766973696f6e206279207a65726f000000000000604482015290519081900360640190fd5b81838161234d57fe5b0490505b92915050565b6000828211156123ae576040805162461bcd60e51b815260206004820152601e60248201527f536166654d6174683a207375627472616374696f6e206f766572666c6f770000604482015290519081900360640190fd5b50900390565b600080826001845103815181106123c757fe5b6020026020010151905060006001845103905060005b84518160ff16101561242f5782858260ff16815181106123f957fe5b6020026020010151111561242757848160ff168151811061241657fe5b602002602001015192508060ff1691505b6001016123dd565b509150505b919050565b60008060008060005b85518160ff1610156124c057868160ff16141561248a57612482868260ff168151811061246b57fe5b6020026020010151836124cb90919063ffffffff16565b9150816124b7565b6124b3868260ff168151811061249c57fe5b6020026020010151846124cb90919063ffffffff16565b9250825b50600101612442565b509590945092505050565b600082820183811015612525576040805162461bcd60e51b815260206004820152601b60248201527f536166654d6174683a206164646974696f6e206f766572666c6f770000000000604482015290519081900360640190fd5b9392505050565b6000806402540be40062015180858503819004908688030481158015906125535750818111155b61255957fe5b6000600580840a908190840a86028161256e57fe5b04955060c8611d4c86611c8489028161258357fe5b04820197508188101580156125985750808811155b61259e57fe5b50959a9950505050505050505050565b6000612710828402116125d35760405162461bcd60e51b81526004016105b990612f28565b61271083830261234d565b6000612710826125ee8587612357565b021161260c5760405162461bcd60e51b81526004016105b990612d50565b6127108261261a8587612357565b028161262257fe5b04949350505050565b600061141b6126448461263e878661264b565b906122ee565b85906124cb565b60008261265a57506000612351565b8282028284828161266757fe5b04146125255760405162461bcd60e51b81526004018080602001828103825260218152602001806131916021913960400191505060405180910390fd5b828054600181600116156101000203166002900490600052602060002090601f0160209004810192826126da5760008555612720565b82601f106126f35782800160ff19823516178555612720565b82800160010185558215612720579182015b82811115612720578235825591602001919060010190612705565b5061272c9291506127cf565b5090565b82805482825590600052602060002090810192821561277d579160200282015b8281111561277d578251805161276d9184916020909101906127e4565b5091602001919060010190612750565b5061272c929150612860565b604051806101c00160405280600e906020820280368337509192915050565b60405180604001604052806002905b60608152602001906001900390816127b75790505090565b5b8082111561272c57600081556001016127d0565b828054600181600116156101000203166002900490600052602060002090601f01602090048101928261281a5760008555612720565b82601f1061283357805160ff1916838001178555612720565b82800160010185558215612720579182015b82811115612720578251825591602001919060010190612845565b8082111561272c576000612874828261287d565b50600101612860565b50805460018160011615610100020316600290046000825580601f106128a357506128c1565b601f0160209004906000526020600020908101906128c191906127cf565b50565b80356001600160a01b038116811461243457600080fd5b6000601f83818401126128ec578182fd5b8235602067ffffffffffffffff8083111561290357fe5b612910828385020161314c565b83815282810190878401875b8681101561298e5781358a018b603f82011261293657898afd5b8681013560408782111561294657fe5b612957828c01601f19168a0161314c565b8281528e8284860101111561296a578c8dfd5b828285018b83013791820189018c905250855250928501929085019060010161291c565b50909998505050505050505050565b6000602082840312156129ae578081fd5b612525826128c4565b60008060008060008060a087890312156129cf578182fd5b6129d8876128c4565b9550602087013567ffffffffffffffff808211156129f4578384fd5b818901915089601f830112612a07578384fd5b813581811115612a15578485fd5b8a6020828501011115612a26578485fd5b602083019750809650506040890135915080821115612a43578384fd5b50612a5089828a016128db565b93505060608701359150608087013590509295509295509295565b60008060408385031215612a7d578182fd5b612a86836128c4565b946020939093013593505050565b600060208284031215612aa5578081fd5b5035919050565b600080600060608486031215612ac0578283fd5b505081359360208301359350604090920135919050565b60008282518085526020808601955080818302840101818601855b84811015612b2057601f19868403018952612b0e838351612b2d565b98840198925090830190600101612af2565b5090979650505050505050565b600081518084526020825b82811015612b53578481018201518682018301528101612b38565b82811115612b6357838284880101525b5080601f19601f8401168601019250505092915050565b6001600160a01b0391909116815260200190565b901515815260200190565b6020810160048310612ba757fe5b91905290565b6000602082526125256020830184612b2d565b6000610220808352612bd481840188612b2d565b9050602080840187845b600e811015612bfb57815183529183019190830190600101612bde565b5050508382036101e0850152816040810187855b6002811015612c5f578583038452815180518085529086019086850190895b81811015612c4a57835183529288019291880191600101612c2e565b50509486019493505090840190600101612c0f565b5050858103610200870152612c748188612ad7565b9a9950505050505050505050565b60208082526036908201527f5374616b65206368616e676520616d6f756e7420697320686967686572207468604082015275616e20746865207374616b656420616d6f756e74202160501b606082015260800190565b60208082526021908201527f4f6e6c79206f776e65722063616e2063616c6c20746869732066756e6374696f6040820152603760f91b606082015260800190565b60208082526017908201527f496e76616c6964206f7074696f6e2073656c6563746564000000000000000000604082015260600190565b602080825260159082015274416d6f756e7420697320746f6f20736d616c6c202160581b604082015260600190565b6020808252603f908201527f546869732066756e6374696f6e206973206e6f7420616c6c6f77656420696e2060408201527f7468652063757272656e74207068617365206f6620746865206d61726b657400606082015260800190565b60208082526025908201527f536f7272792c20796f75206861766520616c7265616479207374616b65642f766040820152646f7465642160d81b606082015260800190565b6020808252601690820152754f7074696f6e7320617265207468652073616d65202160501b604082015260600190565b602080825260409082018190527f596f75206c6f737420796f7572207374616b6520617320796f75206469646e27908201527f7420707265646963742074686520616e7377657220636f72726563746c792021606082015260800190565b6020808252602b908201527f4d61726b6574206d616b65722068617320616c726561647920636f6c6c65637460408201526a207468652066656573202160a81b606082015260800190565b6020808252601490820152735472616e73616374696f6e206661696c6564202160601b604082015260600190565b602080825260129082015271416d6f756e7420746f6f20736d616c6c202160701b604082015260600190565b60208082526031908201527f596f752068617665206e6f742070617274696369706174656420696e207468656040820152702062657474696e67206d61726b6574202160781b606082015260800190565b60208082526019908201527f596f7520686176656e277420766f746564206265666f72652100000000000000604082015260600190565b6020808252818101527f596f75207374616b6564206f6e207468652077726f6e67206f7074696f6e2021604082015260600190565b6020808252818101527f496e73756666696369656e74207374616b65206368616e676520616d6f756e74604082015260600190565b6020808252602d908201527f596f7520686176656e27742070617274696369706174656420696e207265706f60408201526c7274696e67207068617365202160981b606082015260800190565b60208082526018908201527f496e76616c696420616d6f756e7420746f207374616b652e0000000000000000604082015260600190565b60208082526035908201527f43616e2774206368616e676520746865206d61726b657420706172616d6574656040820152747273206f6e636520696e697469616c697a6564202160581b606082015260800190565b90815260200190565b918252602082015260400190565b9283526020830191909152604082015260600190565b60405181810167ffffffffffffffff8111828210171561316857fe5b60405291905056fe56194b50044e75b02ea3e830e97e928ea7f0cbb1eaa873467ed2db56e786ca5c536166654d6174683a206d756c7469706c69636174696f6e206f766572666c6f77a2646970667358221220ea88dd534702f732af8ae7922d3573e88a03e5e0c5844f603db35e4b3b41771964736f6c63430007060033",
    "sourcePath": "/media/rashtrakoff/CHINMAYHDD/smart-contract-testing/contracts/Question/EIP1167_Question.sol",
    "compiler": {
        "name": "solc",
        "version": "0.7.6+commit.7338295f"
    },
    "functionHashes": {
        "MARKET_MAKER_FEE_PER()": "8cd4d49a",
        "TcalcValidationFeePer(uint256,uint256,uint256)": "a478ac95",
        "bettingEndTime()": "67075032",
        "bettingOptionBalances(uint256)": "b5a21e9c",
        "bettingRightOptionBalance()": "cbefdfea",
        "bettingWrongOptionsBalance()": "b555181e",
        "changeStake(uint256,uint256,uint256)": "78eaffa2",
        "currState()": "afe01043",
        "description()": "7284e416",
        "eventEndTime()": "d6bd5db1",
        "getMarketBalance()": "964eec70",
        "hasReported(address)": "c37cb8d4",
        "hasStaked(address)": "c93c8f34",
        "init(address,string,string[],uint256,uint256)": "1467c575",
        "marketInitialized()": "95f85c5d",
        "marketMakerPool()": "4513443a",
        "marketPool()": "ae495091",
        "options(uint256)": "409e2205",
        "owner()": "8da5cb5b",
        "publicVariables()": "f882366e",
        "redeemMarketMakerPayout()": "44ee0b8f",
        "redeemReportingPayout()": "f133f088",
        "redeemStakedPayout()": "f7b884d9",
        "reportingOptionBalances(uint256)": "f021d5f4",
        "reportingRightOptionBalance()": "9c2da5d0",
        "reportingStartTime()": "3cd620c0",
        "reportingWrongOptionsBalance()": "2330a73a",
        "stake(uint256)": "a694fc3a",
        "stakeChangePool()": "93818cae",
        "stakeDetails(address,uint256)": "fd35f8fe",
        "stakeForReporting(uint256)": "237d20b6",
        "startTime()": "78e97925",
        "validationFeePool()": "cc91c561",
        "validationPool()": "9b7242e0",
        "winningOptionId()": "b8fe7cd4"
    },
    "gasEstimates": {
        "creation": {
            "codeDepositCost": "2555000",
            "executionCost": "2763",
            "totalCost": "2557763"
        },
        "external": {
            "MARKET_MAKER_FEE_PER()": "340",
            "TcalcValidationFeePer(uint256,uint256,uint256)": "892",
            "bettingEndTime()": "1140",
            "bettingOptionBalances(uint256)": "2085",
            "bettingRightOptionBalance()": "1095",
            "bettingWrongOptionsBalance()": "1095",
            "changeStake(uint256,uint256,uint256)": "infinite",
            "currState()": "1105",
            "description()": "infinite",
            "eventEndTime()": "1139",
            "getMarketBalance()": "341",
            "hasReported(address)": "1397",
            "hasStaked(address)": "1309",
            "init(address,string,string[],uint256,uint256)": "infinite",
            "marketInitialized()": "1129",
            "marketMakerPool()": "1118",
            "marketPool()": "1140",
            "options(uint256)": "infinite",
            "owner()": "1126",
            "publicVariables()": "infinite",
            "redeemMarketMakerPayout()": "infinite",
            "redeemReportingPayout()": "infinite",
            "redeemStakedPayout()": "infinite",
            "reportingOptionBalances(uint256)": "2040",
            "reportingRightOptionBalance()": "1074",
            "reportingStartTime()": "1141",
            "reportingWrongOptionsBalance()": "1097",
            "stake(uint256)": "infinite",
            "stakeChangePool()": "1095",
            "stakeDetails(address,uint256)": "1477",
            "stakeForReporting(uint256)": "infinite",
            "startTime()": "1096",
            "validationFeePool()": "1117",
            "validationPool()": "1161",
            "winningOptionId()": "1139"
        },
        "internal": {
            "calcWinningOption(uint256[] memory)": "infinite"
        }
    }
}